{
  "contractName": "Voting",
  "abi": [
    {
      "inputs": [],
      "payable": false,
      "stateMutability": "nonpayable",
      "type": "constructor"
    },
    {
      "anonymous": false,
      "inputs": [
        {
          "indexed": true,
          "internalType": "address",
          "name": "creator",
          "type": "address"
        }
      ],
      "name": "TaskCreated",
      "type": "event"
    },
    {
      "anonymous": false,
      "inputs": [
        {
          "indexed": true,
          "internalType": "address",
          "name": "voter",
          "type": "address"
        },
        {
          "indexed": false,
          "internalType": "string",
          "name": "candidate",
          "type": "string"
        }
      ],
      "name": "VoteCast",
      "type": "event"
    },
    {
      "constant": true,
      "inputs": [],
      "name": "taskCount",
      "outputs": [
        {
          "internalType": "uint256",
          "name": "",
          "type": "uint256"
        }
      ],
      "payable": false,
      "stateMutability": "view",
      "type": "function"
    },
    {
      "constant": true,
      "inputs": [
        {
          "internalType": "address",
          "name": "",
          "type": "address"
        }
      ],
      "name": "voters",
      "outputs": [
        {
          "internalType": "bool",
          "name": "",
          "type": "bool"
        }
      ],
      "payable": false,
      "stateMutability": "view",
      "type": "function"
    },
    {
      "constant": true,
      "inputs": [
        {
          "internalType": "uint256",
          "name": "",
          "type": "uint256"
        }
      ],
      "name": "votes",
      "outputs": [
        {
          "internalType": "uint256",
          "name": "voterId",
          "type": "uint256"
        },
        {
          "internalType": "string",
          "name": "candidateName",
          "type": "string"
        },
        {
          "internalType": "uint256",
          "name": "blockNumber",
          "type": "uint256"
        }
      ],
      "payable": false,
      "stateMutability": "view",
      "type": "function"
    },
    {
      "constant": true,
      "inputs": [
        {
          "internalType": "uint256",
          "name": "_voterId",
          "type": "uint256"
        }
      ],
      "name": "getVote",
      "outputs": [
        {
          "internalType": "uint256",
          "name": "",
          "type": "uint256"
        },
        {
          "internalType": "string",
          "name": "",
          "type": "string"
        },
        {
          "internalType": "uint256",
          "name": "",
          "type": "uint256"
        }
      ],
      "payable": false,
      "stateMutability": "view",
      "type": "function"
    },
    {
      "constant": false,
      "inputs": [
        {
          "internalType": "uint256",
          "name": "_voterId",
          "type": "uint256"
        },
        {
          "internalType": "string",
          "name": "_candidateName",
          "type": "string"
        }
      ],
      "name": "vote",
      "outputs": [],
      "payable": false,
      "stateMutability": "nonpayable",
      "type": "function"
    },
    {
      "constant": false,
      "inputs": [
        {
          "internalType": "string",
          "name": "candidate",
          "type": "string"
        }
      ],
      "name": "vote",
      "outputs": [],
      "payable": false,
      "stateMutability": "nonpayable",
      "type": "function"
    },
    {
      "constant": true,
      "inputs": [
        {
          "internalType": "string",
          "name": "candidate",
          "type": "string"
        }
      ],
      "name": "getVotesForCandidate",
      "outputs": [
        {
          "internalType": "uint256",
          "name": "",
          "type": "uint256"
        }
      ],
      "payable": false,
      "stateMutability": "view",
      "type": "function"
    },
    {
      "constant": false,
      "inputs": [],
      "name": "createTask",
      "outputs": [],
      "payable": false,
      "stateMutability": "nonpayable",
      "type": "function"
    },
    {
      "constant": true,
      "inputs": [],
      "name": "getTaskCount",
      "outputs": [
        {
          "internalType": "uint256",
          "name": "",
          "type": "uint256"
        }
      ],
      "payable": false,
      "stateMutability": "view",
      "type": "function"
    }
  ],
  "bytecode": "0x608060405234801561001057600080fd5b506000600381905550610b5e806100286000396000f3fe608060405234801561001057600080fd5b50600436106100935760003560e01c8063a3ec138d11610066578063a3ec138d14610396578063a7476493146103f2578063b6cb58a5146103fc578063c17a340e1461041a578063fc36e15b1461043857610093565b806324108475146100985780635a55c1f01461015d5780635df81330146102125780636ff15627146102c7575b600080fd5b61015b600480360360408110156100ae57600080fd5b8101908080359060200190929190803590602001906401000000008111156100d557600080fd5b8201836020820111156100e757600080fd5b8035906020019184600183028401116401000000008311171561010957600080fd5b91908080601f016020809104026020016040519081016040528093929190818152602001838380828437600081840152601f19601f8201169050808301925050505050505091929192905050506104f3565b005b6101896004803603602081101561017357600080fd5b810190808035906020019092919050505061055e565b6040518084815260200180602001838152602001828103825284818151815260200191508051906020019080838360005b838110156101d55780820151818401526020810190506101ba565b50505050905090810190601f1680156102025780820380516001836020036101000a031916815260200191505b5094505050505060405180910390f35b61023e6004803603602081101561022857600080fd5b8101908080359060200190929190505050610661565b6040518084815260200180602001838152602001828103825284818151815260200191508051906020019080838360005b8381101561028a57808201518184015260208101905061026f565b50505050905090810190601f1680156102b75780820380516001836020036101000a031916815260200191505b5094505050505060405180910390f35b610380600480360360208110156102dd57600080fd5b81019080803590602001906401000000008111156102fa57600080fd5b82018360208201111561030c57600080fd5b8035906020019184600183028401116401000000008311171561032e57600080fd5b91908080601f016020809104026020016040519081016040528093929190818152602001838380828437600081840152601f19601f820116905080830192505050505050509192919290505050610723565b6040518082815260200191505060405180910390f35b6103d8600480360360208110156103ac57600080fd5b81019080803573ffffffffffffffffffffffffffffffffffffffff169060200190929190505050610796565b604051808215151515815260200191505060405180910390f35b6103fa6107b6565b005b61040461080d565b6040518082815260200191505060405180910390f35b610422610813565b6040518082815260200191505060405180910390f35b6104f16004803603602081101561044e57600080fd5b810190808035906020019064010000000081111561046b57600080fd5b82018360208201111561047d57600080fd5b8035906020019184600183028401116401000000008311171561049f57600080fd5b91908080601f016020809104026020016040519081016040528093929190818152602001838380828437600081840152601f19601f82011690508083019250505050505050919291929050505061081d565b005b600043905060405180606001604052808481526020018381526020018281525060008085815260200190815260200160002060008201518160000155602082015181600101908051906020019061054b929190610a63565b5060408201518160020155905050505050565b60006060600061056c610ae3565b60008086815260200190815260200160002060405180606001604052908160008201548152602001600182018054600181600116156101000203166002900480601f01602080910402602001604051908101604052809291908181526020018280546001816001161561010002031660029004801561062c5780601f106106015761010080835404028352916020019161062c565b820191906000526020600020905b81548152906001019060200180831161060f57829003601f168201915b505050505081526020016002820154815250509050806000015181602001518260400151819150935093509350509193909250565b6000602052806000526040600020600091509050806000015490806001018054600181600116156101000203166002900480601f0160208091040260200160405190810160405280929190818152602001828054600181600116156101000203166002900480156107135780601f106106e857610100808354040283529160200191610713565b820191906000526020600020905b8154815290600101906020018083116106f657829003601f168201915b5050505050908060020154905083565b60006002826040518082805190602001908083835b6020831061075b5780518252602082019150602081019050602083039250610738565b6001836020036101000a0380198251168184511680821785525050505050509050019150509081526020016040518091039020549050919050565b60016020528060005260406000206000915054906101000a900460ff1681565b6003600081548092919060010191905055503373ffffffffffffffffffffffffffffffffffffffff167fa41a78ade5fbc4b89e34ab7d276eb9545a2e4878e8f8fd161c9b28f9638bd5d860405160405180910390a2565b60035481565b6000600354905090565b600160003373ffffffffffffffffffffffffffffffffffffffff1673ffffffffffffffffffffffffffffffffffffffff16815260200190815260200160002060009054906101000a900460ff16156108dd576040517f08c379a00000000000000000000000000000000000000000000000000000000081526004018080602001828103825260178152602001807f596f75206861766520616c726561647920766f7465642e00000000000000000081525060200191505060405180910390fd5b60018060003373ffffffffffffffffffffffffffffffffffffffff1673ffffffffffffffffffffffffffffffffffffffff16815260200190815260200160002060006101000a81548160ff0219169083151502179055506002816040518082805190602001908083835b6020831061096a5780518252602082019150602081019050602083039250610947565b6001836020036101000a0380198251168184511680821785525050505050509050019150509081526020016040518091039020600081548092919060010191905055503373ffffffffffffffffffffffffffffffffffffffff167f866dc605853954ffa419910eb05d67f430efec2e7db7ce135bf55565667a4ab4826040518080602001828103825283818151815260200191508051906020019080838360005b83811015610a26578082015181840152602081019050610a0b565b50505050905090810190601f168015610a535780820380516001836020036101000a031916815260200191505b509250505060405180910390a250565b828054600181600116156101000203166002900490600052602060002090601f016020900481019282601f10610aa457805160ff1916838001178555610ad2565b82800160010185558215610ad2579182015b82811115610ad1578251825591602001919060010190610ab6565b5b509050610adf9190610b04565b5090565b60405180606001604052806000815260200160608152602001600081525090565b610b2691905b80821115610b22576000816000905550600101610b0a565b5090565b9056fea265627a7a72315820148dab2236b38ef862bb0cc89a2c78272f182e4b6ba3f9e517f58d4c2f77250a64736f6c63430005100032",
  "source": "pragma solidity ^0.5.0;\r\n\r\ncontract Voting {\r\n    struct Vote {\r\n        uint256 voterId;\r\n        string candidateName;\r\n        uint256 blockNumber; // Add block number to the vote struct\r\n    }\r\n\r\n    mapping(uint256 => Vote) public votes;\r\n\r\n    function vote(uint256 _voterId, string memory _candidateName) public {\r\n        uint256 currentBlockNumber = block.number; // Get the current block number\r\n        votes[_voterId] = Vote(_voterId, _candidateName, currentBlockNumber);\r\n    }\r\n\r\n    function getVote(uint256 _voterId) public view returns (uint256, string memory, uint256) {\r\n        Vote memory voteData = votes[_voterId];\r\n        return (voteData.voterId, voteData.candidateName, voteData.blockNumber);\r\n    }\r\n\r\n    mapping(address => bool) public voters;\r\n    mapping(string => uint256) private votesReceived;\r\n    uint256 public taskCount;\r\n\r\n    event VoteCast(address indexed voter, string candidate);\r\n    event TaskCreated(address indexed creator);\r\n\r\n    constructor() public {\r\n        taskCount = 0; // Initialize task count to 0\r\n    }\r\n\r\n    function vote(string memory candidate) public {\r\n        require(!voters[msg.sender], \"You have already voted.\");\r\n        voters[msg.sender] = true;\r\n        votesReceived[candidate]++;\r\n        emit VoteCast(msg.sender, candidate);\r\n    }\r\n\r\n    function getVotesForCandidate(string memory candidate) public view returns (uint256) {\r\n        return votesReceived[candidate];\r\n    }\r\n\r\n    function createTask() public {\r\n        taskCount++;\r\n        emit TaskCreated(msg.sender);\r\n    }\r\n\r\n    function getTaskCount() public view returns (uint256) {\r\n        return taskCount;\r\n    }\r\n}\r\n",
  "sourcePath": "C:\\Users\\ritar\\Documents\\blockchain5\\contracts\\Voting.sol",
  "compiler": {
    "name": "solc",
    "version": "0.5.16+commit.9c3226ce.Emscripten.clang"
  },
  "schemaVersion": "3.4.16",
  "updatedAt": "2024-05-17T03:53:57.925Z",
  "networkType": "ethereum",
  "devdoc": {
    "methods": {}
  },
  "userdoc": {
    "methods": {}
  }
}